{
	"contracts/Dentalappontiment.sol": {
		"DentalAppointment": {
			"abi": [
				{
					"inputs": [],
					"stateMutability": "nonpayable",
					"type": "constructor"
				},
				{
					"inputs": [
						{
							"internalType": "uint256",
							"name": "",
							"type": "uint256"
						}
					],
					"name": "appointments",
					"outputs": [
						{
							"internalType": "address",
							"name": "patient",
							"type": "address"
						},
						{
							"internalType": "uint256",
							"name": "date",
							"type": "uint256"
						},
						{
							"internalType": "bool",
							"name": "isConfirmed",
							"type": "bool"
						}
					],
					"stateMutability": "view",
					"type": "function"
				},
				{
					"inputs": [
						{
							"internalType": "uint256",
							"name": "_date",
							"type": "uint256"
						}
					],
					"name": "bookAppointment",
					"outputs": [],
					"stateMutability": "nonpayable",
					"type": "function"
				},
				{
					"inputs": [
						{
							"internalType": "uint256",
							"name": "_date",
							"type": "uint256"
						}
					],
					"name": "confirmAppointment",
					"outputs": [],
					"stateMutability": "nonpayable",
					"type": "function"
				},
				{
					"inputs": [],
					"name": "dentist",
					"outputs": [
						{
							"internalType": "address",
							"name": "",
							"type": "address"
						}
					],
					"stateMutability": "view",
					"type": "function"
				},
				{
					"inputs": [
						{
							"internalType": "uint256",
							"name": "_date",
							"type": "uint256"
						}
					],
					"name": "isSlotAvailable",
					"outputs": [
						{
							"internalType": "bool",
							"name": "",
							"type": "bool"
						}
					],
					"stateMutability": "view",
					"type": "function"
				}
			],
			"devdoc": {
				"kind": "dev",
				"methods": {},
				"version": 1
			},
			"evm": {
				"assembly": "    /* \"contracts/Dentalappontiment.sol\":68:1073  contract DentalAppointment {\r... */\n  mstore(0x40, 0x80)\n    /* \"contracts/Dentalappontiment.sol\":302:355  constructor() {\r... */\n  callvalue\n  dup1\n  iszero\n  tag_1\n  jumpi\n  0x00\n  dup1\n  revert\ntag_1:\n  pop\n    /* \"contracts/Dentalappontiment.sol\":337:347  msg.sender */\n  caller\n    /* \"contracts/Dentalappontiment.sol\":327:334  dentist */\n  0x01\n  0x00\n    /* \"contracts/Dentalappontiment.sol\":327:347  dentist = msg.sender */\n  0x0100\n  exp\n  dup2\n  sload\n  dup2\n  0xffffffffffffffffffffffffffffffffffffffff\n  mul\n  not\n  and\n  swap1\n  dup4\n  0xffffffffffffffffffffffffffffffffffffffff\n  and\n  mul\n  or\n  swap1\n  sstore\n  pop\n    /* \"contracts/Dentalappontiment.sol\":68:1073  contract DentalAppointment {\r... */\n  dataSize(sub_0)\n  dup1\n  dataOffset(sub_0)\n  0x00\n  codecopy\n  0x00\n  return\nstop\n\nsub_0: assembly {\n        /* \"contracts/Dentalappontiment.sol\":68:1073  contract DentalAppointment {\r... */\n      mstore(0x40, 0x80)\n      callvalue\n      dup1\n      iszero\n      tag_1\n      jumpi\n      0x00\n      dup1\n      revert\n    tag_1:\n      pop\n      jumpi(tag_2, lt(calldatasize, 0x04))\n      shr(0xe0, calldataload(0x00))\n      dup1\n      0x0ce3fd33\n      eq\n      tag_3\n      jumpi\n      dup1\n      0x12dc9013\n      eq\n      tag_4\n      jumpi\n      dup1\n      0xc645e739\n      eq\n      tag_5\n      jumpi\n      dup1\n      0xcefead95\n      eq\n      tag_6\n      jumpi\n      dup1\n      0xd226522c\n      eq\n      tag_7\n      jumpi\n    tag_2:\n      0x00\n      dup1\n      revert\n        /* \"contracts/Dentalappontiment.sol\":363:485  function isSlotAvailable(uint256 _date) public view returns (bool) {\r... */\n    tag_3:\n      tag_8\n      0x04\n      dup1\n      calldatasize\n      sub\n      0x20\n      dup2\n      lt\n      iszero\n      tag_9\n      jumpi\n      0x00\n      dup1\n      revert\n    tag_9:\n      dup2\n      add\n      swap1\n      dup1\n      dup1\n      calldataload\n      swap1\n      0x20\n      add\n      swap1\n      swap3\n      swap2\n      swap1\n      pop\n      pop\n      pop\n      tag_10\n      jump\t// in\n    tag_8:\n      mload(0x40)\n      dup1\n      dup3\n      iszero\n      iszero\n      dup2\n      mstore\n      0x20\n      add\n      swap2\n      pop\n      pop\n      mload(0x40)\n      dup1\n      swap2\n      sub\n      swap1\n      return\n        /* \"contracts/Dentalappontiment.sol\":213:264  mapping(uint256 => Appointment) public appointments */\n    tag_4:\n      tag_11\n      0x04\n      dup1\n      calldatasize\n      sub\n      0x20\n      dup2\n      lt\n      iszero\n      tag_12\n      jumpi\n      0x00\n      dup1\n      revert\n    tag_12:\n      dup2\n      add\n      swap1\n      dup1\n      dup1\n      calldataload\n      swap1\n      0x20\n      add\n      swap1\n      swap3\n      swap2\n      swap1\n      pop\n      pop\n      pop\n      tag_13\n      jump\t// in\n    tag_11:\n      mload(0x40)\n      dup1\n      dup5\n      0xffffffffffffffffffffffffffffffffffffffff\n      and\n      dup2\n      mstore\n      0x20\n      add\n      dup4\n      dup2\n      mstore\n      0x20\n      add\n      dup3\n      iszero\n      iszero\n      dup2\n      mstore\n      0x20\n      add\n      swap4\n      pop\n      pop\n      pop\n      pop\n      mload(0x40)\n      dup1\n      swap2\n      sub\n      swap1\n      return\n        /* \"contracts/Dentalappontiment.sol\":493:774  function bookAppointment(uint256 _date) public {\r... */\n    tag_5:\n      tag_14\n      0x04\n      dup1\n      calldatasize\n      sub\n      0x20\n      dup2\n      lt\n      iszero\n      tag_15\n      jumpi\n      0x00\n      dup1\n      revert\n    tag_15:\n      dup2\n      add\n      swap1\n      dup1\n      dup1\n      calldataload\n      swap1\n      0x20\n      add\n      swap1\n      swap3\n      swap2\n      swap1\n      pop\n      pop\n      pop\n      tag_16\n      jump\t// in\n    tag_14:\n      stop\n        /* \"contracts/Dentalappontiment.sol\":782:1070  function confirmAppointment(uint256 _date) public {\r... */\n    tag_6:\n      tag_17\n      0x04\n      dup1\n      calldatasize\n      sub\n      0x20\n      dup2\n      lt\n      iszero\n      tag_18\n      jumpi\n      0x00\n      dup1\n      revert\n    tag_18:\n      dup2\n      add\n      swap1\n      dup1\n      dup1\n      calldataload\n      swap1\n      0x20\n      add\n      swap1\n      swap3\n      swap2\n      swap1\n      pop\n      pop\n      pop\n      tag_19\n      jump\t// in\n    tag_17:\n      stop\n        /* \"contracts/Dentalappontiment.sol\":271:293  address public dentist */\n    tag_7:\n      tag_20\n      tag_21\n      jump\t// in\n    tag_20:\n      mload(0x40)\n      dup1\n      dup3\n      0xffffffffffffffffffffffffffffffffffffffff\n      and\n      dup2\n      mstore\n      0x20\n      add\n      swap2\n      pop\n      pop\n      mload(0x40)\n      dup1\n      swap2\n      sub\n      swap1\n      return\n        /* \"contracts/Dentalappontiment.sol\":363:485  function isSlotAvailable(uint256 _date) public view returns (bool) {\r... */\n    tag_10:\n        /* \"contracts/Dentalappontiment.sol\":424:428  bool */\n      0x00\n        /* \"contracts/Dentalappontiment.sol\":476:477  0 */\n      dup1\n        /* \"contracts/Dentalappontiment.sol\":448:460  appointments */\n      0x00\n        /* \"contracts/Dentalappontiment.sol\":448:467  appointments[_date] */\n      dup1\n        /* \"contracts/Dentalappontiment.sol\":461:466  _date */\n      dup5\n        /* \"contracts/Dentalappontiment.sol\":448:467  appointments[_date] */\n      dup2\n      mstore\n      0x20\n      add\n      swap1\n      dup2\n      mstore\n      0x20\n      add\n      0x00\n      keccak256\n        /* \"contracts/Dentalappontiment.sol\":448:472  appointments[_date].date */\n      0x01\n      add\n      sload\n        /* \"contracts/Dentalappontiment.sol\":448:477  appointments[_date].date == 0 */\n      eq\n        /* \"contracts/Dentalappontiment.sol\":441:477  return appointments[_date].date == 0 */\n      swap1\n      pop\n        /* \"contracts/Dentalappontiment.sol\":363:485  function isSlotAvailable(uint256 _date) public view returns (bool) {\r... */\n      swap2\n      swap1\n      pop\n      jump\t// out\n        /* \"contracts/Dentalappontiment.sol\":213:264  mapping(uint256 => Appointment) public appointments */\n    tag_13:\n      mstore(0x20, 0x00)\n      dup1\n      0x00\n      mstore\n      keccak256(0x00, 0x40)\n      0x00\n      swap2\n      pop\n      swap1\n      pop\n      dup1\n      0x00\n      add\n      0x00\n      swap1\n      sload\n      swap1\n      0x0100\n      exp\n      swap1\n      div\n      0xffffffffffffffffffffffffffffffffffffffff\n      and\n      swap1\n      dup1\n      0x01\n      add\n      sload\n      swap1\n      dup1\n      0x02\n      add\n      0x00\n      swap1\n      sload\n      swap1\n      0x0100\n      exp\n      swap1\n      div\n      0xff\n      and\n      swap1\n      pop\n      dup4\n      jump\t// out\n        /* \"contracts/Dentalappontiment.sol\":493:774  function bookAppointment(uint256 _date) public {\r... */\n    tag_16:\n        /* \"contracts/Dentalappontiment.sol\":559:581  isSlotAvailable(_date) */\n      tag_24\n        /* \"contracts/Dentalappontiment.sol\":575:580  _date */\n      dup2\n        /* \"contracts/Dentalappontiment.sol\":559:574  isSlotAvailable */\n      tag_10\n        /* \"contracts/Dentalappontiment.sol\":559:581  isSlotAvailable(_date) */\n      jump\t// in\n    tag_24:\n        /* \"contracts/Dentalappontiment.sol\":551:614  require(isSlotAvailable(_date), \"This slot is already booked!\") */\n      tag_25\n      jumpi\n      mload(0x40)\n      0x08c379a000000000000000000000000000000000000000000000000000000000\n      dup2\n      mstore\n      0x04\n      add\n      dup1\n      dup1\n      0x20\n      add\n      dup3\n      dup2\n      sub\n      dup3\n      mstore\n      0x1c\n      dup2\n      mstore\n      0x20\n      add\n      dup1\n      0x5468697320736c6f7420697320616c726561647920626f6f6b65642100000000\n      dup2\n      mstore\n      pop\n      0x20\n      add\n      swap2\n      pop\n      pop\n      mload(0x40)\n      dup1\n      swap2\n      sub\n      swap1\n      revert\n    tag_25:\n        /* \"contracts/Dentalappontiment.sol\":649:766  Appointment({\r... */\n      mload(0x40)\n      dup1\n      0x60\n      add\n      0x40\n      mstore\n      dup1\n        /* \"contracts/Dentalappontiment.sol\":685:695  msg.sender */\n      caller\n        /* \"contracts/Dentalappontiment.sol\":649:766  Appointment({\r... */\n      0xffffffffffffffffffffffffffffffffffffffff\n      and\n      dup2\n      mstore\n      0x20\n      add\n        /* \"contracts/Dentalappontiment.sol\":716:721  _date */\n      dup3\n        /* \"contracts/Dentalappontiment.sol\":649:766  Appointment({\r... */\n      dup2\n      mstore\n      0x20\n      add\n        /* \"contracts/Dentalappontiment.sol\":749:754  false */\n      0x00\n        /* \"contracts/Dentalappontiment.sol\":649:766  Appointment({\r... */\n      iszero\n      iszero\n      dup2\n      mstore\n      pop\n        /* \"contracts/Dentalappontiment.sol\":627:639  appointments */\n      0x00\n        /* \"contracts/Dentalappontiment.sol\":627:646  appointments[_date] */\n      dup1\n        /* \"contracts/Dentalappontiment.sol\":640:645  _date */\n      dup4\n        /* \"contracts/Dentalappontiment.sol\":627:646  appointments[_date] */\n      dup2\n      mstore\n      0x20\n      add\n      swap1\n      dup2\n      mstore\n      0x20\n      add\n      0x00\n      keccak256\n        /* \"contracts/Dentalappontiment.sol\":627:766  appointments[_date] = Appointment({\r... */\n      0x00\n      dup3\n      add\n      mload\n      dup2\n      0x00\n      add\n      exp(0x0100, 0x00)\n      dup2\n      sload\n      dup2\n      0xffffffffffffffffffffffffffffffffffffffff\n      mul\n      not\n      and\n      swap1\n      dup4\n      0xffffffffffffffffffffffffffffffffffffffff\n      and\n      mul\n      or\n      swap1\n      sstore\n      pop\n      0x20\n      dup3\n      add\n      mload\n      dup2\n      0x01\n      add\n      sstore\n      0x40\n      dup3\n      add\n      mload\n      dup2\n      0x02\n      add\n      exp(0x0100, 0x00)\n      dup2\n      sload\n      dup2\n      0xff\n      mul\n      not\n      and\n      swap1\n      dup4\n      iszero\n      iszero\n      mul\n      or\n      swap1\n      sstore\n      pop\n      swap1\n      pop\n      pop\n        /* \"contracts/Dentalappontiment.sol\":493:774  function bookAppointment(uint256 _date) public {\r... */\n      pop\n      jump\t// out\n        /* \"contracts/Dentalappontiment.sol\":782:1070  function confirmAppointment(uint256 _date) public {\r... */\n    tag_19:\n        /* \"contracts/Dentalappontiment.sol\":865:872  dentist */\n      0x01\n      0x00\n      swap1\n      sload\n      swap1\n      0x0100\n      exp\n      swap1\n      div\n      0xffffffffffffffffffffffffffffffffffffffff\n      and\n        /* \"contracts/Dentalappontiment.sol\":851:872  msg.sender == dentist */\n      0xffffffffffffffffffffffffffffffffffffffff\n      and\n        /* \"contracts/Dentalappontiment.sol\":851:861  msg.sender */\n      caller\n        /* \"contracts/Dentalappontiment.sol\":851:872  msg.sender == dentist */\n      0xffffffffffffffffffffffffffffffffffffffff\n      and\n      eq\n        /* \"contracts/Dentalappontiment.sol\":843:919  require(msg.sender == dentist, \"Only the dentist can confirm appointments!\") */\n      tag_27\n      jumpi\n      mload(0x40)\n      0x08c379a000000000000000000000000000000000000000000000000000000000\n      dup2\n      mstore\n      0x04\n      add\n      dup1\n      dup1\n      0x20\n      add\n      dup3\n      dup2\n      sub\n      dup3\n      mstore\n      0x2a\n      dup2\n      mstore\n      0x20\n      add\n      dup1\n      data_a305a8f42d4d7c2b538ae2da7c7753d09c259f1c59feb5b0636ee1e23ab50e00\n      0x2a\n      swap2\n      codecopy\n      0x40\n      add\n      swap2\n      pop\n      pop\n      mload(0x40)\n      dup1\n      swap2\n      sub\n      swap1\n      revert\n    tag_27:\n        /* \"contracts/Dentalappontiment.sol\":966:967  0 */\n      0x00\n        /* \"contracts/Dentalappontiment.sol\":938:950  appointments */\n      dup1\n        /* \"contracts/Dentalappontiment.sol\":938:957  appointments[_date] */\n      0x00\n        /* \"contracts/Dentalappontiment.sol\":951:956  _date */\n      dup4\n        /* \"contracts/Dentalappontiment.sol\":938:957  appointments[_date] */\n      dup2\n      mstore\n      0x20\n      add\n      swap1\n      dup2\n      mstore\n      0x20\n      add\n      0x00\n      keccak256\n        /* \"contracts/Dentalappontiment.sol\":938:962  appointments[_date].date */\n      0x01\n      add\n      sload\n        /* \"contracts/Dentalappontiment.sol\":938:967  appointments[_date].date != 0 */\n      eq\n      iszero\n        /* \"contracts/Dentalappontiment.sol\":930:1011  require(appointments[_date].date != 0, \"This slot does not have an appointment!\") */\n      tag_28\n      jumpi\n      mload(0x40)\n      0x08c379a000000000000000000000000000000000000000000000000000000000\n      dup2\n      mstore\n      0x04\n      add\n      dup1\n      dup1\n      0x20\n      add\n      dup3\n      dup2\n      sub\n      dup3\n      mstore\n      0x27\n      dup2\n      mstore\n      0x20\n      add\n      dup1\n      data_ebfc260db725eccc907d054c16b3bf0d76d933984f7920d6642a9b8678a04d8b\n      0x27\n      swap2\n      codecopy\n      0x40\n      add\n      swap2\n      pop\n      pop\n      mload(0x40)\n      dup1\n      swap2\n      sub\n      swap1\n      revert\n    tag_28:\n        /* \"contracts/Dentalappontiment.sol\":1058:1062  true */\n      0x01\n        /* \"contracts/Dentalappontiment.sol\":1024:1036  appointments */\n      0x00\n        /* \"contracts/Dentalappontiment.sol\":1024:1043  appointments[_date] */\n      dup1\n        /* \"contracts/Dentalappontiment.sol\":1037:1042  _date */\n      dup4\n        /* \"contracts/Dentalappontiment.sol\":1024:1043  appointments[_date] */\n      dup2\n      mstore\n      0x20\n      add\n      swap1\n      dup2\n      mstore\n      0x20\n      add\n      0x00\n      keccak256\n        /* \"contracts/Dentalappontiment.sol\":1024:1055  appointments[_date].isConfirmed */\n      0x02\n      add\n      0x00\n        /* \"contracts/Dentalappontiment.sol\":1024:1062  appointments[_date].isConfirmed = true */\n      0x0100\n      exp\n      dup2\n      sload\n      dup2\n      0xff\n      mul\n      not\n      and\n      swap1\n      dup4\n      iszero\n      iszero\n      mul\n      or\n      swap1\n      sstore\n      pop\n        /* \"contracts/Dentalappontiment.sol\":782:1070  function confirmAppointment(uint256 _date) public {\r... */\n      pop\n      jump\t// out\n        /* \"contracts/Dentalappontiment.sol\":271:293  address public dentist */\n    tag_21:\n      0x01\n      0x00\n      swap1\n      sload\n      swap1\n      0x0100\n      exp\n      swap1\n      div\n      0xffffffffffffffffffffffffffffffffffffffff\n      and\n      dup2\n      jump\t// out\n    stop\n    data_a305a8f42d4d7c2b538ae2da7c7753d09c259f1c59feb5b0636ee1e23ab50e00 4f6e6c79207468652064656e746973742063616e20636f6e6669726d206170706f696e746d656e747321\n    data_ebfc260db725eccc907d054c16b3bf0d76d933984f7920d6642a9b8678a04d8b 5468697320736c6f7420646f6573206e6f74206861766520616e206170706f696e746d656e7421\n\n    auxdata: 0xa26469706673582212203f9ee49143d75ac99fb860a3918d8459b81f5d19f5d40dc0fed1fc42de64de9d64736f6c63430007000033\n}\n",
				"bytecode": {
					"linkReferences": {},
					"object": "608060405234801561001057600080fd5b5033600160006101000a81548173ffffffffffffffffffffffffffffffffffffffff021916908373ffffffffffffffffffffffffffffffffffffffff16021790555061053b806100616000396000f3fe608060405234801561001057600080fd5b50600436106100575760003560e01c80630ce3fd331461005c57806312dc9013146100a0578063c645e73914610108578063cefead9514610136578063d226522c14610164575b600080fd5b6100886004803603602081101561007257600080fd5b8101908080359060200190929190505050610198565b60405180821515815260200191505060405180910390f35b6100cc600480360360208110156100b657600080fd5b81019080803590602001909291905050506101b9565b604051808473ffffffffffffffffffffffffffffffffffffffff1681526020018381526020018215158152602001935050505060405180910390f35b6101346004803603602081101561011e57600080fd5b8101908080359060200190929190505050610210565b005b6101626004803603602081101561014c57600080fd5b8101908080359060200190929190505050610348565b005b61016c61048e565b604051808273ffffffffffffffffffffffffffffffffffffffff16815260200191505060405180910390f35b60008060008084815260200190815260200160002060010154149050919050565b60006020528060005260406000206000915090508060000160009054906101000a900473ffffffffffffffffffffffffffffffffffffffff16908060010154908060020160009054906101000a900460ff16905083565b61021981610198565b61028b576040517f08c379a000000000000000000000000000000000000000000000000000000000815260040180806020018281038252601c8152602001807f5468697320736c6f7420697320616c726561647920626f6f6b6564210000000081525060200191505060405180910390fd5b60405180606001604052803373ffffffffffffffffffffffffffffffffffffffff1681526020018281526020016000151581525060008083815260200190815260200160002060008201518160000160006101000a81548173ffffffffffffffffffffffffffffffffffffffff021916908373ffffffffffffffffffffffffffffffffffffffff1602179055506020820151816001015560408201518160020160006101000a81548160ff02191690831515021790555090505050565b600160009054906101000a900473ffffffffffffffffffffffffffffffffffffffff1673ffffffffffffffffffffffffffffffffffffffff163373ffffffffffffffffffffffffffffffffffffffff16146103ee576040517f08c379a000000000000000000000000000000000000000000000000000000000815260040180806020018281038252602a8152602001806104b5602a913960400191505060405180910390fd5b600080600083815260200190815260200160002060010154141561045d576040517f08c379a00000000000000000000000000000000000000000000000000000000081526004018080602001828103825260278152602001806104df6027913960400191505060405180910390fd5b600160008083815260200190815260200160002060020160006101000a81548160ff02191690831515021790555050565b600160009054906101000a900473ffffffffffffffffffffffffffffffffffffffff168156fe4f6e6c79207468652064656e746973742063616e20636f6e6669726d206170706f696e746d656e7473215468697320736c6f7420646f6573206e6f74206861766520616e206170706f696e746d656e7421a26469706673582212203f9ee49143d75ac99fb860a3918d8459b81f5d19f5d40dc0fed1fc42de64de9d64736f6c63430007000033",
					"opcodes": "PUSH1 0x80 PUSH1 0x40 MSTORE CALLVALUE DUP1 ISZERO PUSH2 0x10 JUMPI PUSH1 0x0 DUP1 REVERT JUMPDEST POP CALLER PUSH1 0x1 PUSH1 0x0 PUSH2 0x100 EXP DUP2 SLOAD DUP2 PUSH20 0xFFFFFFFFFFFFFFFFFFFFFFFFFFFFFFFFFFFFFFFF MUL NOT AND SWAP1 DUP4 PUSH20 0xFFFFFFFFFFFFFFFFFFFFFFFFFFFFFFFFFFFFFFFF AND MUL OR SWAP1 SSTORE POP PUSH2 0x53B DUP1 PUSH2 0x61 PUSH1 0x0 CODECOPY PUSH1 0x0 RETURN INVALID PUSH1 0x80 PUSH1 0x40 MSTORE CALLVALUE DUP1 ISZERO PUSH2 0x10 JUMPI PUSH1 0x0 DUP1 REVERT JUMPDEST POP PUSH1 0x4 CALLDATASIZE LT PUSH2 0x57 JUMPI PUSH1 0x0 CALLDATALOAD PUSH1 0xE0 SHR DUP1 PUSH4 0xCE3FD33 EQ PUSH2 0x5C JUMPI DUP1 PUSH4 0x12DC9013 EQ PUSH2 0xA0 JUMPI DUP1 PUSH4 0xC645E739 EQ PUSH2 0x108 JUMPI DUP1 PUSH4 0xCEFEAD95 EQ PUSH2 0x136 JUMPI DUP1 PUSH4 0xD226522C EQ PUSH2 0x164 JUMPI JUMPDEST PUSH1 0x0 DUP1 REVERT JUMPDEST PUSH2 0x88 PUSH1 0x4 DUP1 CALLDATASIZE SUB PUSH1 0x20 DUP2 LT ISZERO PUSH2 0x72 JUMPI PUSH1 0x0 DUP1 REVERT JUMPDEST DUP2 ADD SWAP1 DUP1 DUP1 CALLDATALOAD SWAP1 PUSH1 0x20 ADD SWAP1 SWAP3 SWAP2 SWAP1 POP POP POP PUSH2 0x198 JUMP JUMPDEST PUSH1 0x40 MLOAD DUP1 DUP3 ISZERO ISZERO DUP2 MSTORE PUSH1 0x20 ADD SWAP2 POP POP PUSH1 0x40 MLOAD DUP1 SWAP2 SUB SWAP1 RETURN JUMPDEST PUSH2 0xCC PUSH1 0x4 DUP1 CALLDATASIZE SUB PUSH1 0x20 DUP2 LT ISZERO PUSH2 0xB6 JUMPI PUSH1 0x0 DUP1 REVERT JUMPDEST DUP2 ADD SWAP1 DUP1 DUP1 CALLDATALOAD SWAP1 PUSH1 0x20 ADD SWAP1 SWAP3 SWAP2 SWAP1 POP POP POP PUSH2 0x1B9 JUMP JUMPDEST PUSH1 0x40 MLOAD DUP1 DUP5 PUSH20 0xFFFFFFFFFFFFFFFFFFFFFFFFFFFFFFFFFFFFFFFF AND DUP2 MSTORE PUSH1 0x20 ADD DUP4 DUP2 MSTORE PUSH1 0x20 ADD DUP3 ISZERO ISZERO DUP2 MSTORE PUSH1 0x20 ADD SWAP4 POP POP POP POP PUSH1 0x40 MLOAD DUP1 SWAP2 SUB SWAP1 RETURN JUMPDEST PUSH2 0x134 PUSH1 0x4 DUP1 CALLDATASIZE SUB PUSH1 0x20 DUP2 LT ISZERO PUSH2 0x11E JUMPI PUSH1 0x0 DUP1 REVERT JUMPDEST DUP2 ADD SWAP1 DUP1 DUP1 CALLDATALOAD SWAP1 PUSH1 0x20 ADD SWAP1 SWAP3 SWAP2 SWAP1 POP POP POP PUSH2 0x210 JUMP JUMPDEST STOP JUMPDEST PUSH2 0x162 PUSH1 0x4 DUP1 CALLDATASIZE SUB PUSH1 0x20 DUP2 LT ISZERO PUSH2 0x14C JUMPI PUSH1 0x0 DUP1 REVERT JUMPDEST DUP2 ADD SWAP1 DUP1 DUP1 CALLDATALOAD SWAP1 PUSH1 0x20 ADD SWAP1 SWAP3 SWAP2 SWAP1 POP POP POP PUSH2 0x348 JUMP JUMPDEST STOP JUMPDEST PUSH2 0x16C PUSH2 0x48E JUMP JUMPDEST PUSH1 0x40 MLOAD DUP1 DUP3 PUSH20 0xFFFFFFFFFFFFFFFFFFFFFFFFFFFFFFFFFFFFFFFF AND DUP2 MSTORE PUSH1 0x20 ADD SWAP2 POP POP PUSH1 0x40 MLOAD DUP1 SWAP2 SUB SWAP1 RETURN JUMPDEST PUSH1 0x0 DUP1 PUSH1 0x0 DUP1 DUP5 DUP2 MSTORE PUSH1 0x20 ADD SWAP1 DUP2 MSTORE PUSH1 0x20 ADD PUSH1 0x0 KECCAK256 PUSH1 0x1 ADD SLOAD EQ SWAP1 POP SWAP2 SWAP1 POP JUMP JUMPDEST PUSH1 0x0 PUSH1 0x20 MSTORE DUP1 PUSH1 0x0 MSTORE PUSH1 0x40 PUSH1 0x0 KECCAK256 PUSH1 0x0 SWAP2 POP SWAP1 POP DUP1 PUSH1 0x0 ADD PUSH1 0x0 SWAP1 SLOAD SWAP1 PUSH2 0x100 EXP SWAP1 DIV PUSH20 0xFFFFFFFFFFFFFFFFFFFFFFFFFFFFFFFFFFFFFFFF AND SWAP1 DUP1 PUSH1 0x1 ADD SLOAD SWAP1 DUP1 PUSH1 0x2 ADD PUSH1 0x0 SWAP1 SLOAD SWAP1 PUSH2 0x100 EXP SWAP1 DIV PUSH1 0xFF AND SWAP1 POP DUP4 JUMP JUMPDEST PUSH2 0x219 DUP2 PUSH2 0x198 JUMP JUMPDEST PUSH2 0x28B JUMPI PUSH1 0x40 MLOAD PUSH32 0x8C379A000000000000000000000000000000000000000000000000000000000 DUP2 MSTORE PUSH1 0x4 ADD DUP1 DUP1 PUSH1 0x20 ADD DUP3 DUP2 SUB DUP3 MSTORE PUSH1 0x1C DUP2 MSTORE PUSH1 0x20 ADD DUP1 PUSH32 0x5468697320736C6F7420697320616C726561647920626F6F6B65642100000000 DUP2 MSTORE POP PUSH1 0x20 ADD SWAP2 POP POP PUSH1 0x40 MLOAD DUP1 SWAP2 SUB SWAP1 REVERT JUMPDEST PUSH1 0x40 MLOAD DUP1 PUSH1 0x60 ADD PUSH1 0x40 MSTORE DUP1 CALLER PUSH20 0xFFFFFFFFFFFFFFFFFFFFFFFFFFFFFFFFFFFFFFFF AND DUP2 MSTORE PUSH1 0x20 ADD DUP3 DUP2 MSTORE PUSH1 0x20 ADD PUSH1 0x0 ISZERO ISZERO DUP2 MSTORE POP PUSH1 0x0 DUP1 DUP4 DUP2 MSTORE PUSH1 0x20 ADD SWAP1 DUP2 MSTORE PUSH1 0x20 ADD PUSH1 0x0 KECCAK256 PUSH1 0x0 DUP3 ADD MLOAD DUP2 PUSH1 0x0 ADD PUSH1 0x0 PUSH2 0x100 EXP DUP2 SLOAD DUP2 PUSH20 0xFFFFFFFFFFFFFFFFFFFFFFFFFFFFFFFFFFFFFFFF MUL NOT AND SWAP1 DUP4 PUSH20 0xFFFFFFFFFFFFFFFFFFFFFFFFFFFFFFFFFFFFFFFF AND MUL OR SWAP1 SSTORE POP PUSH1 0x20 DUP3 ADD MLOAD DUP2 PUSH1 0x1 ADD SSTORE PUSH1 0x40 DUP3 ADD MLOAD DUP2 PUSH1 0x2 ADD PUSH1 0x0 PUSH2 0x100 EXP DUP2 SLOAD DUP2 PUSH1 0xFF MUL NOT AND SWAP1 DUP4 ISZERO ISZERO MUL OR SWAP1 SSTORE POP SWAP1 POP POP POP JUMP JUMPDEST PUSH1 0x1 PUSH1 0x0 SWAP1 SLOAD SWAP1 PUSH2 0x100 EXP SWAP1 DIV PUSH20 0xFFFFFFFFFFFFFFFFFFFFFFFFFFFFFFFFFFFFFFFF AND PUSH20 0xFFFFFFFFFFFFFFFFFFFFFFFFFFFFFFFFFFFFFFFF AND CALLER PUSH20 0xFFFFFFFFFFFFFFFFFFFFFFFFFFFFFFFFFFFFFFFF AND EQ PUSH2 0x3EE JUMPI PUSH1 0x40 MLOAD PUSH32 0x8C379A000000000000000000000000000000000000000000000000000000000 DUP2 MSTORE PUSH1 0x4 ADD DUP1 DUP1 PUSH1 0x20 ADD DUP3 DUP2 SUB DUP3 MSTORE PUSH1 0x2A DUP2 MSTORE PUSH1 0x20 ADD DUP1 PUSH2 0x4B5 PUSH1 0x2A SWAP2 CODECOPY PUSH1 0x40 ADD SWAP2 POP POP PUSH1 0x40 MLOAD DUP1 SWAP2 SUB SWAP1 REVERT JUMPDEST PUSH1 0x0 DUP1 PUSH1 0x0 DUP4 DUP2 MSTORE PUSH1 0x20 ADD SWAP1 DUP2 MSTORE PUSH1 0x20 ADD PUSH1 0x0 KECCAK256 PUSH1 0x1 ADD SLOAD EQ ISZERO PUSH2 0x45D JUMPI PUSH1 0x40 MLOAD PUSH32 0x8C379A000000000000000000000000000000000000000000000000000000000 DUP2 MSTORE PUSH1 0x4 ADD DUP1 DUP1 PUSH1 0x20 ADD DUP3 DUP2 SUB DUP3 MSTORE PUSH1 0x27 DUP2 MSTORE PUSH1 0x20 ADD DUP1 PUSH2 0x4DF PUSH1 0x27 SWAP2 CODECOPY PUSH1 0x40 ADD SWAP2 POP POP PUSH1 0x40 MLOAD DUP1 SWAP2 SUB SWAP1 REVERT JUMPDEST PUSH1 0x1 PUSH1 0x0 DUP1 DUP4 DUP2 MSTORE PUSH1 0x20 ADD SWAP1 DUP2 MSTORE PUSH1 0x20 ADD PUSH1 0x0 KECCAK256 PUSH1 0x2 ADD PUSH1 0x0 PUSH2 0x100 EXP DUP2 SLOAD DUP2 PUSH1 0xFF MUL NOT AND SWAP1 DUP4 ISZERO ISZERO MUL OR SWAP1 SSTORE POP POP JUMP JUMPDEST PUSH1 0x1 PUSH1 0x0 SWAP1 SLOAD SWAP1 PUSH2 0x100 EXP SWAP1 DIV PUSH20 0xFFFFFFFFFFFFFFFFFFFFFFFFFFFFFFFFFFFFFFFF AND DUP2 JUMP INVALID 0x4F PUSH15 0x6C79207468652064656E7469737420 PUSH4 0x616E2063 PUSH16 0x6E6669726D206170706F696E746D656E PUSH21 0x73215468697320736C6F7420646F6573206E6F7420 PUSH9 0x61766520616E206170 PUSH17 0x6F696E746D656E7421A264697066735822 SLT KECCAK256 EXTCODEHASH SWAP15 0xE4 SWAP2 NUMBER 0xD7 GAS 0xC9 SWAP16 0xB8 PUSH1 0xA3 SWAP2 DUP14 DUP5 MSIZE 0xB8 0x1F 0x5D NOT CREATE2 0xD4 0xD 0xC0 INVALID 0xD1 0xFC TIMESTAMP 0xDE PUSH5 0xDE9D64736F PUSH13 0x63430007000033000000000000 "
				},
				"gasEstimates": {
					"creation": {
						"codeDepositCost": "267800",
						"executionCost": "21172",
						"totalCost": "288972"
					},
					"external": {
						"appointments(uint256)": "2925",
						"bookAppointment(uint256)": "63161",
						"confirmAppointment(uint256)": "infinite",
						"dentist()": "1113",
						"isSlotAvailable(uint256)": "1174"
					}
				},
				"methodIdentifiers": {
					"appointments(uint256)": "12dc9013",
					"bookAppointment(uint256)": "c645e739",
					"confirmAppointment(uint256)": "cefead95",
					"dentist()": "d226522c",
					"isSlotAvailable(uint256)": "0ce3fd33"
				}
			},
			"storageLayout": {
				"storage": [
					{
						"astId": 12,
						"contract": "contracts/Dentalappontiment.sol:DentalAppointment",
						"label": "appointments",
						"offset": 0,
						"slot": "0",
						"type": "t_mapping(t_uint256,t_struct(Appointment)8_storage)"
					},
					{
						"astId": 14,
						"contract": "contracts/Dentalappontiment.sol:DentalAppointment",
						"label": "dentist",
						"offset": 0,
						"slot": "1",
						"type": "t_address"
					}
				],
				"types": {
					"t_address": {
						"encoding": "inplace",
						"label": "address",
						"numberOfBytes": "20"
					},
					"t_bool": {
						"encoding": "inplace",
						"label": "bool",
						"numberOfBytes": "1"
					},
					"t_mapping(t_uint256,t_struct(Appointment)8_storage)": {
						"encoding": "mapping",
						"key": "t_uint256",
						"label": "mapping(uint256 => struct DentalAppointment.Appointment)",
						"numberOfBytes": "32",
						"value": "t_struct(Appointment)8_storage"
					},
					"t_struct(Appointment)8_storage": {
						"encoding": "inplace",
						"label": "struct DentalAppointment.Appointment",
						"members": [
							{
								"astId": 3,
								"contract": "contracts/Dentalappontiment.sol:DentalAppointment",
								"label": "patient",
								"offset": 0,
								"slot": "0",
								"type": "t_address"
							},
							{
								"astId": 5,
								"contract": "contracts/Dentalappontiment.sol:DentalAppointment",
								"label": "date",
								"offset": 0,
								"slot": "1",
								"type": "t_uint256"
							},
							{
								"astId": 7,
								"contract": "contracts/Dentalappontiment.sol:DentalAppointment",
								"label": "isConfirmed",
								"offset": 0,
								"slot": "2",
								"type": "t_bool"
							}
						],
						"numberOfBytes": "96"
					},
					"t_uint256": {
						"encoding": "inplace",
						"label": "uint256",
						"numberOfBytes": "32"
					}
				}
			},
			"userdoc": {
				"kind": "user",
				"methods": {},
				"version": 1
			}
		}
	}
}